{
  "contractName": "Role",
  "abi": [
    {
      "anonymous": false,
      "inputs": [
        {
          "indexed": true,
          "internalType": "string",
          "name": "roleName",
          "type": "string"
        },
        {
          "indexed": true,
          "internalType": "address",
          "name": "member",
          "type": "address"
        }
      ],
      "name": "AddressAddedToRole",
      "type": "event"
    },
    {
      "anonymous": false,
      "inputs": [
        {
          "indexed": true,
          "internalType": "string",
          "name": "roleName",
          "type": "string"
        },
        {
          "indexed": true,
          "internalType": "address",
          "name": "member",
          "type": "address"
        }
      ],
      "name": "AddressRemovedFromRole",
      "type": "event"
    },
    {
      "anonymous": false,
      "inputs": [
        {
          "indexed": true,
          "internalType": "string",
          "name": "roleName",
          "type": "string"
        }
      ],
      "name": "RoleAdded",
      "type": "event"
    },
    {
      "inputs": [
        {
          "internalType": "string",
          "name": "roleName",
          "type": "string"
        },
        {
          "internalType": "address",
          "name": "member",
          "type": "address"
        }
      ],
      "name": "addMember",
      "outputs": [],
      "stateMutability": "nonpayable",
      "type": "function"
    },
    {
      "inputs": [
        {
          "internalType": "string",
          "name": "roleName",
          "type": "string"
        },
        {
          "internalType": "address",
          "name": "member",
          "type": "address"
        }
      ],
      "name": "removeMember",
      "outputs": [],
      "stateMutability": "nonpayable",
      "type": "function"
    },
    {
      "inputs": [
        {
          "internalType": "string",
          "name": "roleName",
          "type": "string"
        },
        {
          "internalType": "address",
          "name": "member",
          "type": "address"
        }
      ],
      "name": "hasRole",
      "outputs": [
        {
          "internalType": "bool",
          "name": "",
          "type": "bool"
        }
      ],
      "stateMutability": "view",
      "type": "function"
    },
    {
      "inputs": [
        {
          "internalType": "string",
          "name": "roleName",
          "type": "string"
        }
      ],
      "name": "createRole",
      "outputs": [],
      "stateMutability": "nonpayable",
      "type": "function"
    },
    {
      "inputs": [
        {
          "internalType": "string",
          "name": "roleName",
          "type": "string"
        }
      ],
      "name": "roleExists",
      "outputs": [
        {
          "internalType": "bool",
          "name": "",
          "type": "bool"
        }
      ],
      "stateMutability": "view",
      "type": "function"
    }
  ],
  "bytecode": "0x608060405234801561001057600080fd5b50610974806100206000396000f3fe608060405234801561001057600080fd5b50600436106100575760003560e01c806345e397051461005c5780636c9cd097146100785780636f9d5c6c146100a8578063af17d38a146100c4578063d00cce41146100e0575b600080fd5b610076600480360381019061007191906106f2565b610110565b005b610092600480360381019061008d91906106f2565b61023a565b60405161009f9190610769565b60405180910390f35b6100c260048036038101906100bd91906106f2565b610306565b005b6100de60048036038101906100d99190610784565b610427565b005b6100fa60048036038101906100f59190610784565b6104fd565b6040516101079190610769565b60405180910390f35b60008083604051610121919061083e565b908152602001604051809103902090508060000160009054906101000a900460ff16610182576040517f08c379a0000000000000000000000000000000000000000000000000000000008152600401610179906108b2565b60405180910390fd5b60018160010160008473ffffffffffffffffffffffffffffffffffffffff1673ffffffffffffffffffffffffffffffffffffffff16815260200190815260200160002060006101000a81548160ff0219169083151502179055508173ffffffffffffffffffffffffffffffffffffffff1683604051610201919061083e565b60405180910390207f6d6c22ee373d468df6a8504623b2a9ba747eca5eb7154ca78ded631953d9413f60405160405180910390a3505050565b60008060008460405161024d919061083e565b908152602001604051809103902090508060000160009054906101000a900460ff166102ae576040517f08c379a00000000000000000000000000000000000000000000000000000000081526004016102a5906108b2565b60405180910390fd5b8060010160008473ffffffffffffffffffffffffffffffffffffffff1673ffffffffffffffffffffffffffffffffffffffff16815260200190815260200160002060009054906101000a900460ff1691505092915050565b60008083604051610317919061083e565b908152602001604051809103902090508060000160009054906101000a900460ff16610378576040517f08c379a000000000000000000000000000000000000000000000000000000000815260040161036f906108b2565b60405180910390fd5b8060010160008373ffffffffffffffffffffffffffffffffffffffff1673ffffffffffffffffffffffffffffffffffffffff16815260200190815260200160002060006101000a81549060ff02191690558173ffffffffffffffffffffffffffffffffffffffff16836040516103ee919061083e565b60405180910390207fba56c7bd31289cf007fed881dcc62221ff62b03bd40e89163496c5fec434cfc360405160405180910390a3505050565b60008082604051610438919061083e565b908152602001604051809103902090508060000160009054906101000a900460ff161561049a576040517f08c379a00000000000000000000000000000000000000000000000000000000081526004016104919061091e565b60405180910390fd5b60018160000160006101000a81548160ff021916908315150217905550816040516104c5919061083e565b60405180910390207f22f30a094e2ed10e9a92ebac7a70b8e2ae3288d9b594db22587861bc8fef4eef60405160405180910390a25050565b600080600083604051610510919061083e565b908152602001604051809103902090508060000160009054906101000a900460ff16915050919050565b6000604051905090565b600080fd5b600080fd5b600080fd5b600080fd5b6000601f19601f8301169050919050565b7f4e487b7100000000000000000000000000000000000000000000000000000000600052604160045260246000fd5b6105a182610558565b810181811067ffffffffffffffff821117156105c0576105bf610569565b5b80604052505050565b60006105d361053a565b90506105df8282610598565b919050565b600067ffffffffffffffff8211156105ff576105fe610569565b5b61060882610558565b9050602081019050919050565b82818337600083830152505050565b6000610637610632846105e4565b6105c9565b90508281526020810184848401111561065357610652610553565b5b61065e848285610615565b509392505050565b600082601f83011261067b5761067a61054e565b5b813561068b848260208601610624565b91505092915050565b600073ffffffffffffffffffffffffffffffffffffffff82169050919050565b60006106bf82610694565b9050919050565b6106cf816106b4565b81146106da57600080fd5b50565b6000813590506106ec816106c6565b92915050565b6000806040838503121561070957610708610544565b5b600083013567ffffffffffffffff81111561072757610726610549565b5b61073385828601610666565b9250506020610744858286016106dd565b9150509250929050565b60008115159050919050565b6107638161074e565b82525050565b600060208201905061077e600083018461075a565b92915050565b60006020828403121561079a57610799610544565b5b600082013567ffffffffffffffff8111156107b8576107b7610549565b5b6107c484828501610666565b91505092915050565b600081519050919050565b600081905092915050565b60005b838110156108015780820151818401526020810190506107e6565b60008484015250505050565b6000610818826107cd565b61082281856107d8565b93506108328185602086016107e3565b80840191505092915050565b600061084a828461080d565b915081905092915050565b600082825260208201905092915050565b7f526f6c6520646f6573206e6f7420657869737400000000000000000000000000600082015250565b600061089c601383610855565b91506108a782610866565b602082019050919050565b600060208201905081810360008301526108cb8161088f565b9050919050565b7f526f6c6520616c72656164792065786973747300000000000000000000000000600082015250565b6000610908601383610855565b9150610913826108d2565b602082019050919050565b60006020820190508181036000830152610937816108fb565b905091905056fea2646970667358221220763d6268905fc2a6d530380bbe92513f02b844b25e0d3251f77c389e5f86c38264736f6c63430008130033",
  "immutableReferences": {},
  "source": "// Declare a contract for managing roles\r\ncontract Role {\r\n    // Declare a struct for storing a role\r\n    struct Role {\r\n        bool exists;\r\n        mapping(address => bool) members;\r\n    }\r\n\r\n    // Declare a map for storing roles\r\n    mapping(string => Role) roles;\r\n\r\n    // Event emitted when a role is added\r\n    event RoleAdded(string indexed roleName);\r\n\r\n    event AddressAddedToRole(string indexed roleName, address indexed member);\r\n\r\n    event AddressRemovedFromRole(\r\n        string indexed roleName,\r\n        address indexed member\r\n    );\r\n\r\n    // Add a member to a role\r\n    function addMember(string memory roleName, address member) public {\r\n        Role storage role = roles[roleName];\r\n        require(role.exists, \"Role does not exist\");\r\n\r\n        role.members[member] = true;\r\n        emit AddressAddedToRole(roleName, member);\r\n    }\r\n\r\n    // Remove a member from a role\r\n    function removeMember(string memory roleName, address member) public {\r\n        Role storage role = roles[roleName];\r\n        require(role.exists, \"Role does not exist\");\r\n\r\n        delete role.members[member];\r\n        emit AddressRemovedFromRole(roleName, member);\r\n    }\r\n\r\n    // Check if an address belongs to a role\r\n    function hasRole(\r\n        string memory roleName,\r\n        address member\r\n    ) public view returns (bool) {\r\n        Role storage role = roles[roleName];\r\n        require(role.exists, \"Role does not exist\");\r\n\r\n        return role.members[member];\r\n    }\r\n\r\n    // Create a new role\r\n    function createRole(string memory roleName) public {\r\n        Role storage role = roles[roleName];\r\n        require(!role.exists, \"Role already exists\");\r\n\r\n        role.exists = true;\r\n        emit RoleAdded(roleName);\r\n    }\r\n\r\n    // Role exists\r\n    function roleExists(string memory roleName) public view returns (bool) {\r\n        Role storage role = roles[roleName];\r\n        return role.exists;\r\n    }\r\n}\r\n",
  "sourcePath": "C:\\Users\\ipericica\\college\\blockchain\\college-bc-supply-chain\\contracts\\roles\\Role.sol",
  "compiler": {
    "name": "solc",
    "version": "0.8.19+commit.7dd6d404.Emscripten.clang"
  },
  "schemaVersion": "3.4.13",
  "updatedAt": "2023-05-09T11:59:01.791Z",
  "devdoc": {
    "kind": "dev",
    "methods": {},
    "version": 1
  },
  "userdoc": {
    "kind": "user",
    "methods": {},
    "version": 1
  }
}