{
  "contractName": "RoleManager",
  "abi": [
    {
      "inputs": [],
      "stateMutability": "nonpayable",
      "type": "constructor"
    },
    {
      "anonymous": false,
      "inputs": [
        {
          "indexed": true,
          "internalType": "string",
          "name": "roleName",
          "type": "string"
        },
        {
          "indexed": true,
          "internalType": "address",
          "name": "member",
          "type": "address"
        }
      ],
      "name": "AddressAddedToRole",
      "type": "event"
    },
    {
      "anonymous": false,
      "inputs": [
        {
          "indexed": true,
          "internalType": "string",
          "name": "roleName",
          "type": "string"
        },
        {
          "indexed": true,
          "internalType": "address",
          "name": "member",
          "type": "address"
        }
      ],
      "name": "AddressRemovedFromRole",
      "type": "event"
    },
    {
      "anonymous": false,
      "inputs": [
        {
          "indexed": true,
          "internalType": "string",
          "name": "roleName",
          "type": "string"
        }
      ],
      "name": "RoleAdded",
      "type": "event"
    },
    {
      "inputs": [
        {
          "internalType": "string",
          "name": "roleName",
          "type": "string"
        },
        {
          "internalType": "address",
          "name": "member",
          "type": "address"
        }
      ],
      "name": "addMember",
      "outputs": [],
      "stateMutability": "nonpayable",
      "type": "function"
    },
    {
      "inputs": [
        {
          "internalType": "string",
          "name": "roleName",
          "type": "string"
        },
        {
          "internalType": "address",
          "name": "member",
          "type": "address"
        }
      ],
      "name": "removeMember",
      "outputs": [],
      "stateMutability": "nonpayable",
      "type": "function"
    },
    {
      "inputs": [
        {
          "internalType": "string",
          "name": "roleName",
          "type": "string"
        },
        {
          "internalType": "address",
          "name": "member",
          "type": "address"
        }
      ],
      "name": "hasRole",
      "outputs": [
        {
          "internalType": "bool",
          "name": "",
          "type": "bool"
        }
      ],
      "stateMutability": "view",
      "type": "function",
      "constant": true
    },
    {
      "inputs": [
        {
          "internalType": "string",
          "name": "roleName",
          "type": "string"
        }
      ],
      "name": "createRole",
      "outputs": [],
      "stateMutability": "nonpayable",
      "type": "function"
    },
    {
      "inputs": [
        {
          "internalType": "string",
          "name": "roleName",
          "type": "string"
        }
      ],
      "name": "roleExists",
      "outputs": [
        {
          "internalType": "bool",
          "name": "",
          "type": "bool"
        }
      ],
      "stateMutability": "view",
      "type": "function",
      "constant": true
    }
  ],
  "bytecode": "0x608060405234801561001057600080fd5b50610a41806100206000396000f3fe608060405234801561001057600080fd5b50600436106100575760003560e01c806345e397051461005c5780636c9cd097146100785780636f9d5c6c146100a8578063af17d38a146100c4578063d00cce41146100e0575b600080fd5b61007660048036038101906100719190610753565b610110565b005b610092600480360381019061008d9190610753565b610167565b60405161009f91906107ca565b60405180910390f35b6100c260048036038101906100bd9190610753565b610233565b005b6100de60048036038101906100d991906107e5565b610354565b005b6100fa60048036038101906100f591906107e5565b610434565b60405161010791906107ca565b60405180910390f35b61011a8233610167565b610159576040517f08c379a00000000000000000000000000000000000000000000000000000000081526004016101509061088b565b60405180910390fd5b6101638282610471565b5050565b60008060008460405161017a919061091c565b908152602001604051809103902090508060000160009054906101000a900460ff166101db576040517f08c379a00000000000000000000000000000000000000000000000000000000081526004016101d29061097f565b60405180910390fd5b8060010160008473ffffffffffffffffffffffffffffffffffffffff1673ffffffffffffffffffffffffffffffffffffffff16815260200190815260200160002060009054906101000a900460ff1691505092915050565b60008083604051610244919061091c565b908152602001604051809103902090508060000160009054906101000a900460ff166102a5576040517f08c379a000000000000000000000000000000000000000000000000000000000815260040161029c9061097f565b60405180910390fd5b8060010160008373ffffffffffffffffffffffffffffffffffffffff1673ffffffffffffffffffffffffffffffffffffffff16815260200190815260200160002060006101000a81549060ff02191690558173ffffffffffffffffffffffffffffffffffffffff168360405161031b919061091c565b60405180910390207fba56c7bd31289cf007fed881dcc62221ff62b03bd40e89163496c5fec434cfc360405160405180910390a3505050565b60008082604051610365919061091c565b908152602001604051809103902090508060000160009054906101000a900460ff16156103c7576040517f08c379a00000000000000000000000000000000000000000000000000000000081526004016103be906109eb565b60405180910390fd5b60018160000160006101000a81548160ff0219169083151502179055506103ee8233610471565b816040516103fc919061091c565b60405180910390207f22f30a094e2ed10e9a92ebac7a70b8e2ae3288d9b594db22587861bc8fef4eef60405160405180910390a25050565b600080600083604051610447919061091c565b908152602001604051809103902090508060000160009054906101000a900460ff16915050919050565b60008083604051610482919061091c565b908152602001604051809103902090508060000160009054906101000a900460ff166104e3576040517f08c379a00000000000000000000000000000000000000000000000000000000081526004016104da9061097f565b60405180910390fd5b60018160010160008473ffffffffffffffffffffffffffffffffffffffff1673ffffffffffffffffffffffffffffffffffffffff16815260200190815260200160002060006101000a81548160ff0219169083151502179055508173ffffffffffffffffffffffffffffffffffffffff1683604051610562919061091c565b60405180910390207f6d6c22ee373d468df6a8504623b2a9ba747eca5eb7154ca78ded631953d9413f60405160405180910390a3505050565b6000604051905090565b600080fd5b600080fd5b600080fd5b600080fd5b6000601f19601f8301169050919050565b7f4e487b7100000000000000000000000000000000000000000000000000000000600052604160045260246000fd5b610602826105b9565b810181811067ffffffffffffffff82111715610621576106206105ca565b5b80604052505050565b600061063461059b565b905061064082826105f9565b919050565b600067ffffffffffffffff8211156106605761065f6105ca565b5b610669826105b9565b9050602081019050919050565b82818337600083830152505050565b600061069861069384610645565b61062a565b9050828152602081018484840111156106b4576106b36105b4565b5b6106bf848285610676565b509392505050565b600082601f8301126106dc576106db6105af565b5b81356106ec848260208601610685565b91505092915050565b600073ffffffffffffffffffffffffffffffffffffffff82169050919050565b6000610720826106f5565b9050919050565b61073081610715565b811461073b57600080fd5b50565b60008135905061074d81610727565b92915050565b6000806040838503121561076a576107696105a5565b5b600083013567ffffffffffffffff811115610788576107876105aa565b5b610794858286016106c7565b92505060206107a58582860161073e565b9150509250929050565b60008115159050919050565b6107c4816107af565b82525050565b60006020820190506107df60008301846107bb565b92915050565b6000602082840312156107fb576107fa6105a5565b5b600082013567ffffffffffffffff811115610819576108186105aa565b5b610825848285016106c7565b91505092915050565b600082825260208201905092915050565b7f53656e646572206973206e6f7420617574686f72697a65640000000000000000600082015250565b600061087560188361082e565b91506108808261083f565b602082019050919050565b600060208201905081810360008301526108a481610868565b9050919050565b600081519050919050565b600081905092915050565b60005b838110156108df5780820151818401526020810190506108c4565b60008484015250505050565b60006108f6826108ab565b61090081856108b6565b93506109108185602086016108c1565b80840191505092915050565b600061092882846108eb565b915081905092915050565b7f526f6c6520646f6573206e6f7420657869737400000000000000000000000000600082015250565b600061096960138361082e565b915061097482610933565b602082019050919050565b600060208201905081810360008301526109988161095c565b9050919050565b7f526f6c6520616c72656164792065786973747300000000000000000000000000600082015250565b60006109d560138361082e565b91506109e08261099f565b602082019050919050565b60006020820190508181036000830152610a04816109c8565b905091905056fea26469706673582212205b9a8434336bb6e284198206a2f676ccedf49608a0b31d5ade01fc56179714a264736f6c63430008130033",
  "immutableReferences": {},
  "source": "pragma solidity ^0.8.19;\r\n\r\n// Declare a contract for managing roles\r\ncontract RoleManager {\r\n    // Declare a struct for storing a role\r\n    struct Role {\r\n        bool exists;\r\n        mapping(address => bool) members;\r\n    }\r\n\r\n    // Declare a map for storing roles\r\n    mapping(string => Role) roles;\r\n\r\n    // Event emitted when a role is added\r\n    event RoleAdded(string indexed roleName);\r\n\r\n    event AddressAddedToRole(string indexed roleName, address indexed member);\r\n\r\n    event AddressRemovedFromRole(\r\n        string indexed roleName,\r\n        address indexed member\r\n    );\r\n\r\n    constructor() public {\r\n        // Create a role for the contract owner\r\n    }\r\n\r\n    // Add a member to a role\r\n    function addMember(string memory roleName, address member) public {\r\n        // Only member of the role group can add a member to that group\r\n        require(hasRole(roleName, msg.sender), \"Sender is not authorized\");\r\n        _addMember(roleName, member);\r\n    }\r\n\r\n    function _addMember(string memory roleName, address member) internal {\r\n        Role storage role = roles[roleName];\r\n        require(role.exists, \"Role does not exist\");\r\n\r\n        role.members[member] = true;\r\n        emit AddressAddedToRole(roleName, member);\r\n    }\r\n\r\n    // Remove a member from a role\r\n    function removeMember(string memory roleName, address member) public {\r\n        Role storage role = roles[roleName];\r\n        require(role.exists, \"Role does not exist\");\r\n\r\n        delete role.members[member];\r\n        emit AddressRemovedFromRole(roleName, member);\r\n    }\r\n\r\n    // Check if an address belongs to a role\r\n    function hasRole(\r\n        string memory roleName,\r\n        address member\r\n    ) public view returns (bool) {\r\n        Role storage role = roles[roleName];\r\n        require(role.exists, \"Role does not exist\");\r\n\r\n        return role.members[member];\r\n    }\r\n\r\n    // Create a new role\r\n    function createRole(string memory roleName) public {\r\n        Role storage role = roles[roleName];\r\n        require(!role.exists, \"Role already exists\");\r\n\r\n        role.exists = true;\r\n\r\n        // who created the role is the first member\r\n        _addMember(roleName, msg.sender);\r\n        emit RoleAdded(roleName);\r\n    }\r\n\r\n    // Role exists\r\n    function roleExists(string memory roleName) public view returns (bool) {\r\n        Role storage role = roles[roleName];\r\n        return role.exists;\r\n    }\r\n}\r\n",
  "sourcePath": "C:\\Users\\ipericica\\college\\blockchain\\college-bc-supply-chain\\contracts\\RoleManager.sol",
  "compiler": {
    "name": "solc",
    "version": "0.8.19+commit.7dd6d404.Emscripten.clang"
  },
  "schemaVersion": "3.4.13",
  "updatedAt": "2023-05-09T21:54:22.423Z",
  "networkType": "ethereum",
  "devdoc": {
    "kind": "dev",
    "methods": {},
    "version": 1
  },
  "userdoc": {
    "kind": "user",
    "methods": {},
    "version": 1
  }
}