{
  "contractName": "SupplyChain",
  "abi": [
    {
      "inputs": [],
      "stateMutability": "payable",
      "type": "constructor",
      "payable": true
    },
    {
      "anonymous": false,
      "inputs": [
        {
          "indexed": true,
          "internalType": "string",
          "name": "roleName",
          "type": "string"
        },
        {
          "indexed": true,
          "internalType": "address",
          "name": "member",
          "type": "address"
        }
      ],
      "name": "AddressAddedToRole",
      "type": "event"
    },
    {
      "anonymous": false,
      "inputs": [
        {
          "indexed": true,
          "internalType": "string",
          "name": "roleName",
          "type": "string"
        },
        {
          "indexed": true,
          "internalType": "address",
          "name": "member",
          "type": "address"
        }
      ],
      "name": "AddressRemovedFromRole",
      "type": "event"
    },
    {
      "anonymous": false,
      "inputs": [
        {
          "indexed": false,
          "internalType": "uint256",
          "name": "id",
          "type": "uint256"
        }
      ],
      "name": "ItemCreated",
      "type": "event"
    },
    {
      "anonymous": false,
      "inputs": [
        {
          "indexed": false,
          "internalType": "uint256",
          "name": "id",
          "type": "uint256"
        },
        {
          "indexed": true,
          "internalType": "address",
          "name": "toOwnerId",
          "type": "address"
        }
      ],
      "name": "Purchsed",
      "type": "event"
    },
    {
      "anonymous": false,
      "inputs": [
        {
          "indexed": true,
          "internalType": "string",
          "name": "roleName",
          "type": "string"
        }
      ],
      "name": "RoleAdded",
      "type": "event"
    },
    {
      "anonymous": false,
      "inputs": [
        {
          "indexed": false,
          "internalType": "uint256",
          "name": "id",
          "type": "uint256"
        },
        {
          "indexed": true,
          "internalType": "address",
          "name": "toOwnerId",
          "type": "address"
        }
      ],
      "name": "Transit",
      "type": "event"
    },
    {
      "inputs": [
        {
          "internalType": "string",
          "name": "roleName",
          "type": "string"
        },
        {
          "internalType": "address",
          "name": "member",
          "type": "address"
        }
      ],
      "name": "addMember",
      "outputs": [],
      "stateMutability": "nonpayable",
      "type": "function"
    },
    {
      "inputs": [
        {
          "internalType": "string",
          "name": "roleName",
          "type": "string"
        }
      ],
      "name": "createRole",
      "outputs": [],
      "stateMutability": "nonpayable",
      "type": "function"
    },
    {
      "inputs": [
        {
          "internalType": "string",
          "name": "roleName",
          "type": "string"
        },
        {
          "internalType": "address",
          "name": "member",
          "type": "address"
        }
      ],
      "name": "hasRole",
      "outputs": [
        {
          "internalType": "bool",
          "name": "",
          "type": "bool"
        }
      ],
      "stateMutability": "view",
      "type": "function",
      "constant": true
    },
    {
      "inputs": [
        {
          "internalType": "string",
          "name": "roleName",
          "type": "string"
        },
        {
          "internalType": "address",
          "name": "member",
          "type": "address"
        }
      ],
      "name": "removeMember",
      "outputs": [],
      "stateMutability": "nonpayable",
      "type": "function"
    },
    {
      "inputs": [
        {
          "internalType": "string",
          "name": "roleName",
          "type": "string"
        }
      ],
      "name": "roleExists",
      "outputs": [
        {
          "internalType": "bool",
          "name": "",
          "type": "bool"
        }
      ],
      "stateMutability": "view",
      "type": "function",
      "constant": true
    },
    {
      "inputs": [
        {
          "internalType": "uint256",
          "name": "_ean",
          "type": "uint256"
        },
        {
          "internalType": "uint256",
          "name": "productPrice",
          "type": "uint256"
        },
        {
          "internalType": "string",
          "name": "_factoryName",
          "type": "string"
        }
      ],
      "name": "createItem",
      "outputs": [],
      "stateMutability": "nonpayable",
      "type": "function"
    },
    {
      "inputs": [
        {
          "internalType": "uint256",
          "name": "_id",
          "type": "uint256"
        }
      ],
      "name": "buyTransit",
      "outputs": [],
      "stateMutability": "payable",
      "type": "function",
      "payable": true
    },
    {
      "inputs": [
        {
          "internalType": "uint256",
          "name": "_id",
          "type": "uint256"
        }
      ],
      "name": "buyCustomer",
      "outputs": [],
      "stateMutability": "payable",
      "type": "function",
      "payable": true
    },
    {
      "inputs": [
        {
          "internalType": "uint256",
          "name": "_id",
          "type": "uint256"
        },
        {
          "internalType": "uint256",
          "name": "_newPrice",
          "type": "uint256"
        }
      ],
      "name": "changeProductPrice",
      "outputs": [],
      "stateMutability": "nonpayable",
      "type": "function"
    },
    {
      "inputs": [
        {
          "internalType": "uint256",
          "name": "_id",
          "type": "uint256"
        }
      ],
      "name": "getItem",
      "outputs": [
        {
          "internalType": "uint256",
          "name": "ean",
          "type": "uint256"
        },
        {
          "internalType": "uint256",
          "name": "id",
          "type": "uint256"
        },
        {
          "internalType": "address",
          "name": "creatorId",
          "type": "address"
        },
        {
          "internalType": "address",
          "name": "currentOwnerId",
          "type": "address"
        },
        {
          "internalType": "string",
          "name": "factoryName",
          "type": "string"
        },
        {
          "internalType": "uint256",
          "name": "productPrice",
          "type": "uint256"
        },
        {
          "internalType": "enum SupplyChain.State",
          "name": "state",
          "type": "uint8"
        }
      ],
      "stateMutability": "view",
      "type": "function",
      "constant": true
    },
    {
      "inputs": [
        {
          "internalType": "uint256",
          "name": "_id",
          "type": "uint256"
        }
      ],
      "name": "itemExists",
      "outputs": [
        {
          "internalType": "bool",
          "name": "",
          "type": "bool"
        }
      ],
      "stateMutability": "view",
      "type": "function",
      "constant": true
    }
  ],
  "bytecode": "0x608060405260018081905550620000516040518060400160405280600781526020017f63726561746f7200000000000000000000000000000000000000000000000000815250620000e360201b60201c565b620000976040518060400160405280600b81526020017f6469737472696275746f72000000000000000000000000000000000000000000815250620000e360201b60201c565b620000dd6040518060400160405280600881526020017f637573746f6d6572000000000000000000000000000000000000000000000000815250620000e360201b60201c565b6200048a565b60008082604051620000f691906200037c565b908152602001604051809103902090508060000160009054906101000a900460ff16156200015b576040517f08c379a00000000000000000000000000000000000000000000000000000000081526004016200015290620003f6565b60405180910390fd5b60018160000160006101000a81548160ff0219169083151502179055506200018a8233620001d260201b60201c565b816040516200019a91906200037c565b60405180910390207f22f30a094e2ed10e9a92ebac7a70b8e2ae3288d9b594db22587861bc8fef4eef60405160405180910390a25050565b60008083604051620001e591906200037c565b908152602001604051809103902090508060000160009054906101000a900460ff1662000249576040517f08c379a0000000000000000000000000000000000000000000000000000000008152600401620002409062000468565b60405180910390fd5b60018160010160008473ffffffffffffffffffffffffffffffffffffffff1673ffffffffffffffffffffffffffffffffffffffff16815260200190815260200160002060006101000a81548160ff0219169083151502179055508173ffffffffffffffffffffffffffffffffffffffff1683604051620002ca91906200037c565b60405180910390207f6d6c22ee373d468df6a8504623b2a9ba747eca5eb7154ca78ded631953d9413f60405160405180910390a3505050565b600081519050919050565b600081905092915050565b60005b83811015620003395780820151818401526020810190506200031c565b60008484015250505050565b6000620003528262000303565b6200035e81856200030e565b93506200037081856020860162000319565b80840191505092915050565b60006200038a828462000345565b915081905092915050565b600082825260208201905092915050565b7f526f6c6520616c72656164792065786973747300000000000000000000000000600082015250565b6000620003de60138362000395565b9150620003eb82620003a6565b602082019050919050565b600060208201905081810360008301526200041181620003cf565b9050919050565b7f526f6c6520646f6573206e6f7420657869737400000000000000000000000000600082015250565b60006200045060138362000395565b91506200045d8262000418565b602082019050919050565b60006020820190508181036000830152620004838162000441565b9050919050565b6120fb806200049a6000396000f3fe60806040526004361061009c5760003560e01c806374c6f88f1161006457806374c6f88f1461018f5780637e0309e4146101b8578063843bd641146101d4578063af17d38a14610211578063d00cce411461023a578063f1d36cbc146102775761009c565b80633129e773146100a157806345e39705146100e457806366f8905b1461010d5780636c9cd097146101295780636f9d5c6c14610166575b600080fd5b3480156100ad57600080fd5b506100c860048036038101906100c39190611313565b6102a0565b6040516100db9796959493929190611497565b60405180910390f35b3480156100f057600080fd5b5061010b6004803603810190610106919061166e565b6104a1565b005b61012760048036038101906101229190611313565b6104f8565b005b34801561013557600080fd5b50610150600480360381019061014b919061166e565b610836565b60405161015d91906116e5565b60405180910390f35b34801561017257600080fd5b5061018d6004803603810190610188919061166e565b610902565b005b34801561019b57600080fd5b506101b660048036038101906101b19190611700565b610a23565b005b6101d260048036038101906101cd9190611313565b610c7f565b005b3480156101e057600080fd5b506101fb60048036038101906101f69190611313565b610f9c565b60405161020891906116e5565b60405180910390f35b34801561021d57600080fd5b506102386004803603810190610233919061176f565b610fbf565b005b34801561024657600080fd5b50610261600480360381019061025c919061176f565b61109f565b60405161026e91906116e5565b60405180910390f35b34801561028357600080fd5b5061029e600480360381019061029991906117b8565b6110dc565b005b60008060008060606000806000600260008a81526020019081526020016000206040518060e001604052908160008201548152602001600182015481526020016002820160009054906101000a900473ffffffffffffffffffffffffffffffffffffffff1673ffffffffffffffffffffffffffffffffffffffff1673ffffffffffffffffffffffffffffffffffffffff1681526020016003820160009054906101000a900473ffffffffffffffffffffffffffffffffffffffff1673ffffffffffffffffffffffffffffffffffffffff1673ffffffffffffffffffffffffffffffffffffffff16815260200160048201805461039b90611827565b80601f01602080910402602001604051908101604052809291908181526020018280546103c790611827565b80156104145780601f106103e957610100808354040283529160200191610414565b820191906000526020600020905b8154815290600101906020018083116103f757829003601f168201915b50505050508152602001600582015481526020016006820160009054906101000a900460ff16600281111561044c5761044b611420565b5b600281111561045e5761045d611420565b5b815250509050806000015181602001518260400151836060015184608001518560a001518660c00151975097509750975097509750975050919395979092949650565b6104ab8233610836565b6104ea576040517f08c379a00000000000000000000000000000000000000000000000000000000081526004016104e1906118a4565b60405180910390fd5b6104f4828261119f565b5050565b806000600281111561050d5761050c611420565b5b6002600083815260200190815260200160002060060160009054906101000a900460ff16600281111561054357610542611420565b5b148061059657506001600281111561055e5761055d611420565b5b6002600083815260200190815260200160002060060160009054906101000a900460ff16600281111561059457610593611420565b5b145b6105d5576040517f08c379a00000000000000000000000000000000000000000000000000000000081526004016105cc90611936565b60405180910390fd5b60006002600084815260200190815260200160002060050154905061062f6040518060400160405280600b81526020017f6469737472696275746f7200000000000000000000000000000000000000000081525033610836565b61066e576040517f08c379a0000000000000000000000000000000000000000000000000000000008152600401610665906119c8565b60405180910390fd5b8034101560405160200161068190611a65565b604051602081830303815290604052906106d1576040517f08c379a00000000000000000000000000000000000000000000000000000000081526004016106c89190611a7a565b60405180910390fd5b506002600084815260200190815260200160002060030160009054906101000a900473ffffffffffffffffffffffffffffffffffffffff1673ffffffffffffffffffffffffffffffffffffffff166108fc829081150290604051600060405180830381858888f1935050505015801561074e573d6000803e3d6000fd5b50336002600085815260200190815260200160002060030160006101000a81548173ffffffffffffffffffffffffffffffffffffffff021916908373ffffffffffffffffffffffffffffffffffffffff16021790555060016002600085815260200190815260200160002060060160006101000a81548160ff021916908360028111156107de576107dd611420565b5b02179055503373ffffffffffffffffffffffffffffffffffffffff167f615fd71cfbb8a6dbd1c2f5490743efb3f27a856c61e89b9b7df5119057dd22ef846040516108299190611a9c565b60405180910390a2505050565b6000806000846040516108499190611ae8565b908152602001604051809103902090508060000160009054906101000a900460ff166108aa576040517f08c379a00000000000000000000000000000000000000000000000000000000081526004016108a190611b4b565b60405180910390fd5b8060010160008473ffffffffffffffffffffffffffffffffffffffff1673ffffffffffffffffffffffffffffffffffffffff16815260200190815260200160002060009054906101000a900460ff1691505092915050565b600080836040516109139190611ae8565b908152602001604051809103902090508060000160009054906101000a900460ff16610974576040517f08c379a000000000000000000000000000000000000000000000000000000000815260040161096b90611b4b565b60405180910390fd5b8060010160008373ffffffffffffffffffffffffffffffffffffffff1673ffffffffffffffffffffffffffffffffffffffff16815260200190815260200160002060006101000a81549060ff02191690558173ffffffffffffffffffffffffffffffffffffffff16836040516109ea9190611ae8565b60405180910390207fba56c7bd31289cf007fed881dcc62221ff62b03bd40e89163496c5fec434cfc360405160405180910390a3505050565b6000339050610a676040518060400160405280600781526020017f63726561746f720000000000000000000000000000000000000000000000000081525082610836565b610aa6576040517f08c379a0000000000000000000000000000000000000000000000000000000008152600401610a9d90611bdd565b60405180910390fd5b60006040518060e0016040528086815260200160016000815480929190610acc90611c2c565b9190505581526020018373ffffffffffffffffffffffffffffffffffffffff1681526020018373ffffffffffffffffffffffffffffffffffffffff16815260200184815260200185815260200160006002811115610b2d57610b2c611420565b5b8152509050806002600083602001518152602001908152602001600020600082015181600001556020820151816001015560408201518160020160006101000a81548173ffffffffffffffffffffffffffffffffffffffff021916908373ffffffffffffffffffffffffffffffffffffffff16021790555060608201518160030160006101000a81548173ffffffffffffffffffffffffffffffffffffffff021916908373ffffffffffffffffffffffffffffffffffffffff1602179055506080820151816004019081610c019190611e20565b5060a0820151816005015560c08201518160060160006101000a81548160ff02191690836002811115610c3757610c36611420565b5b02179055509050507fa26a7a3d8c7ebb9fc47c7fdfd8af05a15da0ff8d51b883930669ed3ee87f09de600154604051610c709190611a9c565b60405180910390a15050505050565b8060006002811115610c9457610c93611420565b5b6002600083815260200190815260200160002060060160009054906101000a900460ff166002811115610cca57610cc9611420565b5b1480610d1d575060016002811115610ce557610ce4611420565b5b6002600083815260200190815260200160002060060160009054906101000a900460ff166002811115610d1b57610d1a611420565b5b145b610d5c576040517f08c379a0000000000000000000000000000000000000000000000000000000008152600401610d5390611936565b60405180910390fd5b600060026000848152602001908152602001600020600501549050610db66040518060400160405280600881526020017f637573746f6d657200000000000000000000000000000000000000000000000081525033610836565b610df5576040517f08c379a0000000000000000000000000000000000000000000000000000000008152600401610dec90611f64565b60405180910390fd5b80341015610e38576040517f08c379a0000000000000000000000000000000000000000000000000000000008152600401610e2f90611fa7565b60405180910390fd5b6002600084815260200190815260200160002060030160009054906101000a900473ffffffffffffffffffffffffffffffffffffffff1673ffffffffffffffffffffffffffffffffffffffff166108fc829081150290604051600060405180830381858888f19350505050158015610eb4573d6000803e3d6000fd5b50336002600085815260200190815260200160002060030160006101000a81548173ffffffffffffffffffffffffffffffffffffffff021916908373ffffffffffffffffffffffffffffffffffffffff16021790555060016002600085815260200190815260200160002060060160006101000a81548160ff02191690836002811115610f4457610f43611420565b5b02179055503373ffffffffffffffffffffffffffffffffffffffff167f615fd71cfbb8a6dbd1c2f5490743efb3f27a856c61e89b9b7df5119057dd22ef84604051610f8f9190611a9c565b60405180910390a2505050565b600080600260008481526020019081526020016000206001015414159050919050565b60008082604051610fd09190611ae8565b908152602001604051809103902090508060000160009054906101000a900460ff1615611032576040517f08c379a000000000000000000000000000000000000000000000000000000000815260040161102990612013565b60405180910390fd5b60018160000160006101000a81548160ff021916908315150217905550611059823361119f565b816040516110679190611ae8565b60405180910390207f22f30a094e2ed10e9a92ebac7a70b8e2ae3288d9b594db22587861bc8fef4eef60405160405180910390a25050565b6000806000836040516110b29190611ae8565b908152602001604051809103902090508060000160009054906101000a900460ff16915050919050565b3373ffffffffffffffffffffffffffffffffffffffff166002600084815260200190815260200160002060030160009054906101000a900473ffffffffffffffffffffffffffffffffffffffff1673ffffffffffffffffffffffffffffffffffffffff1614611180576040517f08c379a0000000000000000000000000000000000000000000000000000000008152600401611177906120a5565b60405180910390fd5b8060026000848152602001908152602001600020600501819055505050565b600080836040516111b09190611ae8565b908152602001604051809103902090508060000160009054906101000a900460ff16611211576040517f08c379a000000000000000000000000000000000000000000000000000000000815260040161120890611b4b565b60405180910390fd5b60018160010160008473ffffffffffffffffffffffffffffffffffffffff1673ffffffffffffffffffffffffffffffffffffffff16815260200190815260200160002060006101000a81548160ff0219169083151502179055508173ffffffffffffffffffffffffffffffffffffffff16836040516112909190611ae8565b60405180910390207f6d6c22ee373d468df6a8504623b2a9ba747eca5eb7154ca78ded631953d9413f60405160405180910390a3505050565b6000604051905090565b600080fd5b600080fd5b6000819050919050565b6112f0816112dd565b81146112fb57600080fd5b50565b60008135905061130d816112e7565b92915050565b600060208284031215611329576113286112d3565b5b6000611337848285016112fe565b91505092915050565b611349816112dd565b82525050565b600073ffffffffffffffffffffffffffffffffffffffff82169050919050565b600061137a8261134f565b9050919050565b61138a8161136f565b82525050565b600081519050919050565b600082825260208201905092915050565b60005b838110156113ca5780820151818401526020810190506113af565b60008484015250505050565b6000601f19601f8301169050919050565b60006113f282611390565b6113fc818561139b565b935061140c8185602086016113ac565b611415816113d6565b840191505092915050565b7f4e487b7100000000000000000000000000000000000000000000000000000000600052602160045260246000fd5b600381106114605761145f611420565b5b50565b60008190506114718261144f565b919050565b600061148182611463565b9050919050565b61149181611476565b82525050565b600060e0820190506114ac600083018a611340565b6114b96020830189611340565b6114c66040830188611381565b6114d36060830187611381565b81810360808301526114e581866113e7565b90506114f460a0830185611340565b61150160c0830184611488565b98975050505050505050565b600080fd5b600080fd5b7f4e487b7100000000000000000000000000000000000000000000000000000000600052604160045260246000fd5b61154f826113d6565b810181811067ffffffffffffffff8211171561156e5761156d611517565b5b80604052505050565b60006115816112c9565b905061158d8282611546565b919050565b600067ffffffffffffffff8211156115ad576115ac611517565b5b6115b6826113d6565b9050602081019050919050565b82818337600083830152505050565b60006115e56115e084611592565b611577565b90508281526020810184848401111561160157611600611512565b5b61160c8482856115c3565b509392505050565b600082601f8301126116295761162861150d565b5b81356116398482602086016115d2565b91505092915050565b61164b8161136f565b811461165657600080fd5b50565b60008135905061166881611642565b92915050565b60008060408385031215611685576116846112d3565b5b600083013567ffffffffffffffff8111156116a3576116a26112d8565b5b6116af85828601611614565b92505060206116c085828601611659565b9150509250929050565b60008115159050919050565b6116df816116ca565b82525050565b60006020820190506116fa60008301846116d6565b92915050565b600080600060608486031215611719576117186112d3565b5b6000611727868287016112fe565b9350506020611738868287016112fe565b925050604084013567ffffffffffffffff811115611759576117586112d8565b5b61176586828701611614565b9150509250925092565b600060208284031215611785576117846112d3565b5b600082013567ffffffffffffffff8111156117a3576117a26112d8565b5b6117af84828501611614565b91505092915050565b600080604083850312156117cf576117ce6112d3565b5b60006117dd858286016112fe565b92505060206117ee858286016112fe565b9150509250929050565b7f4e487b7100000000000000000000000000000000000000000000000000000000600052602260045260246000fd5b6000600282049050600182168061183f57607f821691505b602082108103611852576118516117f8565b5b50919050565b7f53656e646572206973206e6f7420617574686f72697a65640000000000000000600082015250565b600061188e60188361139b565b915061189982611858565b602082019050919050565b600060208201905081810360008301526118bd81611881565b9050919050565b7f546865204974656d206973206e6f7420696e204372656174656420737461746560008201527f2100000000000000000000000000000000000000000000000000000000000000602082015250565b600061192060218361139b565b915061192b826118c4565b604082019050919050565b6000602082019050818103600083015261194f81611913565b9050919050565b7f54686973206163636f756e7420686173206e6f2061204469737472696275746f60008201527f7220526f6c650000000000000000000000000000000000000000000000000000602082015250565b60006119b260268361139b565b91506119bd82611956565b604082019050919050565b600060208201905081810360008301526119e1816119a5565b9050919050565b600081905092915050565b7f54686520616d6f756e742073656e74206973206e6f742073756666696369656e60008201527f7420666f72207468652070726963650000000000000000000000000000000000602082015250565b6000611a4f602f836119e8565b9150611a5a826119f3565b602f82019050919050565b6000611a7082611a42565b9150819050919050565b60006020820190508181036000830152611a9481846113e7565b905092915050565b6000602082019050611ab16000830184611340565b92915050565b6000611ac282611390565b611acc81856119e8565b9350611adc8185602086016113ac565b80840191505092915050565b6000611af48284611ab7565b915081905092915050565b7f526f6c6520646f6573206e6f7420657869737400000000000000000000000000600082015250565b6000611b3560138361139b565b9150611b4082611aff565b602082019050919050565b60006020820190508181036000830152611b6481611b28565b9050919050565b7f54686973206163636f756e7420686173206e6f20612043726561746f7220526f60008201527f6c65000000000000000000000000000000000000000000000000000000000000602082015250565b6000611bc760228361139b565b9150611bd282611b6b565b604082019050919050565b60006020820190508181036000830152611bf681611bba565b9050919050565b7f4e487b7100000000000000000000000000000000000000000000000000000000600052601160045260246000fd5b6000611c37826112dd565b91507fffffffffffffffffffffffffffffffffffffffffffffffffffffffffffffffff8203611c6957611c68611bfd565b5b600182019050919050565b60008190508160005260206000209050919050565b60006020601f8301049050919050565b600082821b905092915050565b600060088302611cd67fffffffffffffffffffffffffffffffffffffffffffffffffffffffffffffffff82611c99565b611ce08683611c99565b95508019841693508086168417925050509392505050565b6000819050919050565b6000611d1d611d18611d13846112dd565b611cf8565b6112dd565b9050919050565b6000819050919050565b611d3783611d02565b611d4b611d4382611d24565b848454611ca6565b825550505050565b600090565b611d60611d53565b611d6b818484611d2e565b505050565b5b81811015611d8f57611d84600082611d58565b600181019050611d71565b5050565b601f821115611dd457611da581611c74565b611dae84611c89565b81016020851015611dbd578190505b611dd1611dc985611c89565b830182611d70565b50505b505050565b600082821c905092915050565b6000611df760001984600802611dd9565b1980831691505092915050565b6000611e108383611de6565b9150826002028217905092915050565b611e2982611390565b67ffffffffffffffff811115611e4257611e41611517565b5b611e4c8254611827565b611e57828285611d93565b600060209050601f831160018114611e8a5760008415611e78578287015190505b611e828582611e04565b865550611eea565b601f198416611e9886611c74565b60005b82811015611ec057848901518255600182019150602085019450602081019050611e9b565b86831015611edd5784890151611ed9601f891682611de6565b8355505b6001600288020188555050505b505050505050565b7f54686973206163636f756e7420686173206e6f206120437573746f6d6572205260008201527f6f6c650000000000000000000000000000000000000000000000000000000000602082015250565b6000611f4e60238361139b565b9150611f5982611ef2565b604082019050919050565b60006020820190508181036000830152611f7d81611f41565b9050919050565b6000611f91602f8361139b565b9150611f9c826119f3565b604082019050919050565b60006020820190508181036000830152611fc081611f84565b9050919050565b7f526f6c6520616c72656164792065786973747300000000000000000000000000600082015250565b6000611ffd60138361139b565b915061200882611fc7565b602082019050919050565b6000602082019050818103600083015261202c81611ff0565b9050919050565b7f54686973206163636f756e7420646f6573206e6f74206f776e2074686973206960008201527f74656d0000000000000000000000000000000000000000000000000000000000602082015250565b600061208f60238361139b565b915061209a82612033565b604082019050919050565b600060208201905081810360008301526120be81612082565b905091905056fea26469706673582212207ad5649fa8fa66996a0b27fda95acddfa77eff71acc8b41c2637ce9e9f21b10b64736f6c63430008130033",
  "immutableReferences": {},
  "source": "pragma solidity ^0.8.19;\r\n\r\nimport \"./RoleManager.sol\";\r\n\r\ncontract SupplyChain is RoleManager {\r\n    uint uniqueIdentifier;\r\n\r\n    enum State {\r\n        Created,\r\n        Transit,\r\n        Purchased\r\n    }\r\n\r\n    State constant defaultState = State.Created;\r\n\r\n    struct Item {\r\n        uint ean;\r\n        uint id;\r\n        address payable creatorId;\r\n        address payable currentOwnerId;\r\n        // Created ( creatorId == currentOwnerId)\r\n        // Transit (creatorId)\r\n        string factoryName;\r\n        uint productPrice;\r\n        State state;\r\n    }\r\n\r\n    mapping(uint => Item) items;\r\n\r\n    event ItemCreated(uint id);\r\n    event Transit(uint id, address indexed toOwnerId);\r\n    event Purchsed(uint id, address indexed toOwnerId);\r\n\r\n    modifier verifyCaller(address _address) {\r\n        require(\r\n            msg.sender == _address,\r\n            \"This account is not the owner of this item\"\r\n        );\r\n        _;\r\n    }\r\n\r\n    modifier paidEnough(uint _price) {\r\n        require(\r\n            msg.value >= _price,\r\n            \"The amount sent is not sufficient for the price\"\r\n        );\r\n        _;\r\n    }\r\n\r\n    modifier notSold(uint id) {\r\n        require(\r\n            items[id].state == State.Created ||\r\n                items[id].state == State.Transit,\r\n            \"The Item is not in Created state!\"\r\n        );\r\n        _;\r\n    }\r\n\r\n    modifier transit(uint id) {\r\n        require(\r\n            items[id].state == State.Transit,\r\n            \"The Item is not in transit state!\"\r\n        );\r\n        _;\r\n    }\r\n\r\n    modifier purchased(uint _upc) {\r\n        require(\r\n            items[_upc].state == State.Purchased,\r\n            \"The Item is not in Purchased state!\"\r\n        );\r\n        _;\r\n    }\r\n\r\n    constructor() public payable {\r\n        uniqueIdentifier = 1;\r\n        createRole(\"creator\");\r\n        createRole(\"distributor\");\r\n        createRole(\"customer\");\r\n    }\r\n\r\n    // Define a function 'createItem' that allows a creator to mark an item 'Created'\r\n    function createItem(\r\n        uint _ean,\r\n        uint productPrice,\r\n        string memory _factoryName\r\n    ) public {\r\n        address payable _creatorId = payable(msg.sender);\r\n        require(\r\n            hasRole(\"creator\", _creatorId),\r\n            \"This account has no a Creator Role\"\r\n        );\r\n        Item memory item = Item({\r\n            ean: _ean,\r\n            id: uniqueIdentifier++,\r\n            creatorId: _creatorId,\r\n            currentOwnerId: _creatorId,\r\n            factoryName: _factoryName,\r\n            state: State.Created,\r\n            productPrice: productPrice\r\n        });\r\n        items[item.id] = item;\r\n        emit ItemCreated(uniqueIdentifier);\r\n    }\r\n\r\n    // Buy as distributor from Creator/ another distributor\r\n    function buyTransit(uint _id) public payable notSold(_id) {\r\n        uint productPrice = items[_id].productPrice;\r\n\r\n        require(\r\n            hasRole(\"distributor\", msg.sender),\r\n            \"This account has no a Distributor Role\"\r\n        );\r\n        require(\r\n            msg.value >= productPrice,\r\n            string.concat(\"The amount sent is not sufficient for the price\")\r\n        );\r\n        // Transfer money to current owner\r\n        items[_id].currentOwnerId.transfer(productPrice);\r\n\r\n        items[_id].currentOwnerId = payable(msg.sender);\r\n        items[_id].state = State.Transit;\r\n\r\n        emit Transit(_id, msg.sender);\r\n    }\r\n\r\n    // Buy as distributor from Creator/ another distributor\r\n    function buyCustomer(uint _id) public payable notSold(_id) {\r\n        uint productPrice = items[_id].productPrice;\r\n\r\n        require(\r\n            hasRole(\"customer\", msg.sender),\r\n            \"This account has no a Customer Role\"\r\n        );\r\n        require(\r\n            msg.value >= productPrice,\r\n            \"The amount sent is not sufficient for the price\"\r\n        );\r\n        // Transfer money to current owner\r\n        items[_id].currentOwnerId.transfer(productPrice);\r\n\r\n        items[_id].currentOwnerId = payable(msg.sender);\r\n        items[_id].state = State.Transit;\r\n\r\n        emit Transit(_id, msg.sender);\r\n    }\r\n\r\n    function changeProductPrice(uint _id, uint _newPrice) public {\r\n        require(\r\n            items[_id].currentOwnerId == msg.sender,\r\n            \"This account does not own this item\"\r\n        );\r\n        items[_id].productPrice = _newPrice;\r\n    }\r\n\r\n    function getItem(\r\n        uint _id\r\n    )\r\n        public\r\n        view\r\n        returns (\r\n            uint ean,\r\n            uint id,\r\n            address creatorId,\r\n            address currentOwnerId,\r\n            string memory factoryName,\r\n            uint productPrice,\r\n            State state\r\n        )\r\n    {\r\n        Item memory item = items[_id];\r\n        return (\r\n            item.ean,\r\n            item.id,\r\n            item.creatorId,\r\n            item.currentOwnerId,\r\n            item.factoryName,\r\n            item.productPrice,\r\n            item.state\r\n        );\r\n    }\r\n\r\n    function itemExists(uint _id) public view returns (bool) {\r\n        return items[_id].id != 0;\r\n    }\r\n}\r\n",
  "sourcePath": "C:\\Users\\ipericica\\college\\blockchain\\college-bc-supply-chain\\contracts\\SupplyChain.sol",
  "compiler": {
    "name": "solc",
    "version": "0.8.19+commit.7dd6d404.Emscripten.clang"
  },
  "schemaVersion": "3.4.13",
  "updatedAt": "2023-05-09T21:54:22.434Z",
  "networkType": "ethereum",
  "devdoc": {
    "kind": "dev",
    "methods": {},
    "version": 1
  },
  "userdoc": {
    "kind": "user",
    "methods": {},
    "version": 1
  }
}